:1000000045C000004BC0000049C0000047C00000D0
:1000100045C0000043C0000041C000003FC00000D8
:100020003DC000003BC0000039C0000037C00000E8
:1000300035C0000033C0000031C000002FC00000F8
:100040002DC000002BC0000029C0000027C0000008
:1000500025C0000023C0000021C000001FC0000018
:100060001DC000001BC0000019C0000017C0000028
:1000700015C0000013C0000011C000000FC0000038
:100080000DC000000BC0000009C0000011241FBEFD
:10009000CFEFD0E1DEBFCDBF53D05BC0B1CF85BBCA
:1000A000D898D998DA9A8AE18A95F1F700C0DA9857
:1000B0008AE18A95F1F700C0089585BB8BB38E6FF6
:1000C0008BBBD998DA9A8AE18A95F1F700C0DA9861
:1000D0008AE18A95F1F700C008958BB388638BBBE2
:1000E0002FEF89EF90E0215080409040E1F700C071
:1000F00000008EE3D4DF80E4D2DF88EBD0DF80EC39
:10010000CEDF8FE3CCCF0895CF93DF938BB388619D
:100110008BBB88EBC4DFC0E4D0E081E1CEDF219768
:10012000E1F789EBBCDFC0E4D0E081E1C6DF2197D5
:10013000E1F780E4B4DF88EBB2DFDF91CF9108957F
:1001400087E08ABB8FEF84BBC8DF82E0B6DFDCDFED
:06015000FFCFF894FFCF81
:00000001FF
