S00E00003230313030372E73726563EC
S113000045C0000060C000005EC000005CC000008D
S11300105AC0000058C0000056C0000054C0000080
S113002052C0000050C000004EC000004CC0000090
S11300304AC0000048C0000046C0000044C00000A0
S113004042C0000040C000003EC000003CC00000B0
S11300503AC0000038C0000036C0000034C00000C0
S113006032C0000030C000002EC000002CC00000D0
S11300702AC0000028C0000026C0000024C00000E0
S113008022C0000020C000001EC0000011241FBEBA
S1130090CFEFD0E1DEBFCDBF11E0A0E0B1E0E2E9F7
S11300A0F3E000E00BBF02C007900D92AC30B10743
S11300B0D9F721E0ACE0B1E001C01D92A231B20752
S11300C0E1F7C2D064C19CCFEFE3FFE13197F1F7D0
S11300D000C00000982F907F95BB95B39C7F95BB83
S11300E0F5E0FA95F1F70000AA9A25E02A95F1F7D0
S11300F00000AA98E0E18E9FC001112485BB85B35E
S11301008C7F85BBF5E0FA95F1F70000AA9A25E00B
S11301102A95F1F70000AA980895E7E7FFE03197E0
S1130120F1F700C00000982F907F95BBA89AA9987A
S1130130F5E0FA95F1F70000AA9A25E02A95F1F77F
S11301400000AA98E0E18E9FC001112485BBA89A03
S1130150A998F5E0FA95F1F70000AA9A25E02A9506
S1130160F1F70000AA9808952FEF86E791E0215057
S113017080409040E1F700C0000088E2A5DF20ED58
S11301802A95F1F78EE0A0DF80ED8A95F1F781E002
S11301909BDF87EE97E10197F1F700C0000086E04E
S11301A093CF0895EF92FF920F931F93CF93DF9312
S11301B08C017C01C0E0D0E005C0F70181917F0192
S11301C0ACDF2196F80101900020E9F73197E01B9C
S11301D0F10BCE17DF0788F3DF91CF911F910F91B9
S11301E0FF90EF9008958E9A96982FEF89EF90E004
S11301F0215080409040E1F700C00000969A089595
S11302008E988699FECF869BFECF8699FECF089561
S113021088E090E0869BFECF20EA2A95F1F7869B42
S113022007C020910C01220F216020930C0105C00E
S113023020910C01220F20930C018699FECF019787
S113024049F780910C010895CF93DF93CDB7DEB7C2
S11302502B970FB6F894DEBF0FBECDBF8FEF84BBD4
S113026015BA82DFC0DFCCDFD3DF80931001D0DF8B
S113027080930D01CDDF80930F01CADF80931101BC
S1130280C7DF80930E019091100120910D0130E0A1
S1130290290F311D90910F01290F311D90911101EA
S11302A0290F311D90E02817390721F080E091E0F3
S11302B079DF26C080E808DF84E091E073DF84E81A
S11302C003DF809110014AE050E0BE016F5F7F4F71
S11302D090E020D0CE01019665DF80ECF5DE88E069
S11302E091E060DF84ECF0DE80910F014AE050E0A1
S11302F0BE016F5F7F4F90E00DD0CE01019652DFBB
S11303002FEF8BE792E9215080409040E1F700C045
S11303100000A8CF4532510518F4423008F004C05B
S1130320FB011082CB010895BB274A3031F4992395
S113033022F4BDE2909581959F4F01C0BB27FB013C
S11303405527AA27880F991FAA1FA41710F0A41BCA
S113035083955051B9F7A05DAA3308F0A95DA19324
S1130360009779F7B111B1931192CB0100C0DC0170
S1130370FC01672F71917723E1F7329704C07C91D8
S11303806D9370836291AE17BF07C8F30895F89414
S1050390FFCF99
S10F03926572720052483A00543A0000B0
S9030000FC
