:1000000045C0000058C0000056C0000054C00000A9
:1000100052C0000050C000004EC000004CC00000A4
:100020004AC0000048C0000046C0000044C00000B4
:1000300042C0000040C000003EC000003CC00000C4
:100040003AC0000038C0000036C0000034C00000D4
:1000500032C0000030C000002EC000002CC00000E4
:100060002AC0000028C0000026C0000024C00000F4
:1000700022C0000020C000001EC000001CC0000004
:100080001AC0000018C0000016C0000011241FBED6
:10009000CFEFD0E1DEBFCDBF11E0A0E0B1E0E4E8FA
:1000A000F2E000E00BBF02C007900D92A231B10751
:1000B000D9F7A5D0E5C0A4CF83B18F3F21F083B19C
:1000C000880F8F5F01C08EEF83B9089583B18F3F92
:1000D00021F083B18695805801C08FE783B90895D8
:1000E000EFE3FFE13197F1F700C00000982F907F18
:1000F00095BB95B39C7F95BBF5E0FA95F1F70000B1
:10010000AA9A25E02A95F1F70000AA98E0E18E9FCF
:10011000C001112485BB85B38C7F85BBF5E0FA95C2
:10012000F1F70000AA9A25E02A95F1F70000AA98B5
:100130000895E7E7FFE03197F1F700C00000982F3E
:10014000907F95BBA89AA998F5E0FA95F1F7000081
:10015000AA9A25E02A95F1F70000AA98E0E18E9F7F
:10016000C001112485BBA89AA998F5E0FA95F1F78A
:100170000000AA9A25E02A95F1F70000AA980895B0
:100180002FEF86E791E0215080409040E1F700C0DA
:10019000000088E2A5DF20ED2A95F1F78EE0A0DFD0
:1001A00080ED8A95F1F781E09BDF87EE97E101977B
:1001B000F1F700C0000086E093CF0895EF92FF9220
:1001C0000F931F93CF93DF938C017C01C0E0D0E0AD
:1001D00005C0F70181917F01ACDF2196F801019004
:1001E0000020E9F73197E01BF10BCE17DF0788F30A
:1001F000DF91CF911F910F91FF90EF9008958FEFB6
:1002000084BB11BA82B915BA8EEF83B9B9DFC1E0E8
:10021000D0E0809904C0209769F1219706C08199A8
:1002200004C0C130D10549F1219681E059DF209702
:1002300031F484E091E0C2DFC0E0D0E008C0C1301A
:10024000D10529F48BE091E0B9DFC1E0D0E0FE01F7
:10025000EE0FFF1FE050FF4F0190F081E02D099558
:100260002FEF81EE94E0215080409040E1F700C0F4
:100270000000CFCF81E034DFDCCF81E031DFE2CF9F
:04028000F894FFCF20
:100284005C00660020524947485400204C454654BF
:02029400000068
:00000001FF
