S00E00003230303532372E73726563E6
S113000045C0000058C0000056C0000054C00000A5
S113001052C0000050C000004EC000004CC00000A0
S11300204AC0000048C0000046C0000044C00000B0
S113003042C0000040C000003EC000003CC00000C0
S11300403AC0000038C0000036C0000034C00000D0
S113005032C0000030C000002EC000002CC00000E0
S11300602AC0000028C0000026C0000024C00000F0
S113007022C0000020C000001EC000001CC0000000
S11300801AC0000018C0000016C0000011241FBED2
S1130090CFEFD0E1DEBFCDBF11E0A0E0B1E0EAECEC
S11300A0F2E000E00BBF02C007900D92A035B1074B
S11300B0D9F7F2D008C1A4CF8A3090F5E82FF0E048
S11300C0EE0FFF1FEE0FFF1FEE0FFF1FE050FF4F5D
S11300D08181382F330F8281880F880F832B3081E1
S11300E0982F932B8381880F880F880F892B9481F5
S11300F040E1949F90011124822B958120E2929FEC
S1130100B0011124862B968120E4929FA001112432
S1130110842B978140E8949F90011124822B0895A9
S113012080E00895EF92FF920F931F93CF93DF9394
S1130130EC019C01ADECBCECB7D07C01F694E794E7
S1130140F694E794F694E7949701220F331FC701BE
S1130150880F991F880F991F880F991F820F931F6B
S11301602C2F281B822FA8DF98E09BBB02E610E00F
S1130170F80180838FE99FE00197F1F700C0000048
S11301809701ADECBCEC90D09695879596958795A4
S1130190969587959C01220F331F880F991F880F0E
S11301A0991F880F991F820F931FEE2DE81B8E2F26
S11301B083DF94E09BBBF80180838FE99FE0019784
S11301C0F1F700C000009E013695279536952795D6
S11301D0ABE7B4E169D0AC01569547959A01ADEC13
S11301E0BCEC62D09695879596958795969587955C
S11301F09C01220F331F880F991F880F991F880FA6
S1130200991F820F931FE42FE81B8E2F55DF92E076
S11302109BBBF80180838FE99FE00197F1F700C051
S113022000009E0136952795369527953695279596
S1130230A5ECB0E239D0AC01529542954F704527F8
S11302405F7045279A01ADECBCEC2ED0969587954E
S113025096958795969587959C01220F331F880F55
S1130260991F880F991F880F991F820F931FE42FDE
S1130270E81B8E2F21DF91E09BBBF80180838FE97F
S11302809FE00197F1F700C00000DF91CF911F912B
S11302900F91FF90EF9008958FEF8ABB80936100D8
S11302A087E993E03FDFFCCFA29FB001B39FC00179
S11302B0A39F700D811D1124911DB29F700D811D8E
S10D02C01124911D0895F894FFCF56
S11302CA0101010101010000000101000000000018
S11302DA0101000101000100010101010000010006
S11302EA00010100000101000100010100010100F7
S11302FA01000101010101000101010000000000E7
S113030A01010101010101000101010100010100D2
S9030000FC
