:1000000045C0000060C000005EC000005CC0000091
:100010005AC0000058C0000056C0000054C0000084
:1000200052C0000050C000004EC000004CC0000094
:100030004AC0000048C0000046C0000044C00000A4
:1000400043C0000040C000003EC000003CC00000B3
:100050003AC0000038C0000036C0000034C00000C4
:1000600032C0000030C000002EC000002CC00000D4
:100070002AC0000028C0000026C0000024C00000E4
:1000800022C0000020C000001EC0000011241FBEBE
:10009000CFEFD0E1DEBFCDBF11E0A0E0B1E0E6E9F7
:1000A000F1E000E00BBF02C007900D92AA30B1074B
:1000B000D9F721E0AAE0B1E001C01D92AB30B20750
:1000C000E1F723D066C09CCF1F920F920FB60F921C
:1000D00011240BB60F928F939F93EF93FF9398B3D6
:1000E00080E2892788BBE0910A01F0E0E050FF4FF1
:1000F000808182BFFF91EF919F918F910F900BBEF6
:100100000F900FBE0F901F90189580E287BB83E081
:1001100083BF81E087BF789429E030E0B09BFECFB9
:1001200080910A0190E00196B9010CD080930A01F8
:100130004FEF85EA9EE0415080409040E1F700C0DB
:100140000000ECCF97FB072E16F4009406D077FD45
:1001500008D00BD007FC05D03EF4909581959F4FB9
:100160000895709561957F4F0895AA1BBB1B51E1BF
:1001700007C0AA1FBB1FA617B70710F0A61BB70B17
:10018000881F991F5A95A9F780959095BC01CD01BC
:060190000895F894FFCF72
:0A019600112B424D61727F89FF00BA
:00000001FF
