S00E00003230303632342E73726563E8
S113000045C0000058C0000056C0000054C00000A5
S113001052C0000050C000004EC000004CC00000A0
S11300204AC0000048C0000046C0000044C00000B0
S113003042C0000040C000003EC000003CC00000C0
S11300403AC0000038C0000036C0000034C00000D0
S113005032C0000030C000002EC000002CC00000E0
S11300602AC0000028C0000026C0000024C00000F0
S113007022C0000020C000001EC000001CC0000000
S11300801AC0000018C0000016C0000011241FBED2
S1130090CFEFD0E1DEBFCDBF11E0A0E0B1E0EEE9EB
S11300A0F2E000E00BBF02C007900D92A630B1074A
S11300B0D9F791D0F2C0A4CFEFE3FFE13197F1F784
S11300C000C00000982F907F95BB95B39C7F95BB93
S11300D0F5E0FA95F1F70000AA9A25E02A95F1F7E0
S11300E00000AA98E0E18E9FC001112485BB85B36E
S11300F08C7F85BBF5E0FA95F1F70000AA9A25E01C
S11301002A95F1F70000AA980895E7E7FFE03197F0
S1130110F1F700C00000982F907F95BBA89AA9988A
S1130120F5E0FA95F1F70000AA9A25E02A95F1F78F
S11301300000AA98E0E18E9FC001112485BBA89A13
S1130140A998F5E0FA95F1F70000AA9A25E02A9516
S1130150F1F70000AA9808952FEF86E791E0215067
S113016080409040E1F700C0000088E2A5DF20ED68
S11301702A95F1F78EE0A0DF80ED8A95F1F781E012
S11301809BDF87EE97E10197F1F700C0000086E05E
S113019093CF0895EF92FF920F931F93CF93DF9322
S11301A08C017C01C0E0D0E005C0F70181917F01A2
S11301B0ACDF2196F80101900020E9F73197E01BAC
S11301C0F10BCE17DF0788F3DF91CF911F910F91C9
S11301D0FF90EF900895CF93DF9300D000D01F924B
S11301E0CDB7DEB78FEF84BB11BA15BAB5DF80E0A7
S11301F091E0D0DFFE01319685E0DF011D928A9502
S1130200E9F711E0809904C0113039F0115005C0AC
S1130210819903C0143009F01F5F829916C0212F01
S113022030E0E1E0F0E0EC0FFD1FE20FF31F80810E
S1130230893081F1E1E0F0E0EC0FFD1FE20FF31FE4
S113024091E0980F90838F5C60DF839916C0212F13
S113025030E0E1E0F0E0EC0FFD1FE20FF31F8081DE
S1130260882359F0E1E0F0E0EC0FFD1FE20FF31FEB
S11302709FEF980F9083815D48DF8FE7810F1CDF2C
S1130280BFEF23EC89E0B15020408040E1F700C08B
S11102900000B8CF839BE6CFF0CFF894FFCFE9
S109029E30303030000096
S9030000FC
