:1000000045C0000058C0000056C0000054C00000A9
:1000100052C0000050C000004EC000004CC00000A4
:100020004AC0000048C0000046C0000044C00000B4
:1000300042C0000040C000003EC000003CC00000C4
:100040003AC0000038C0000036C0000034C00000D4
:1000500032C0000030C000002EC000002CC00000E4
:100060002AC0000028C0000026C0000024C00000F4
:1000700022C0000020C000001EC000001CC0000004
:100080001AC0000018C0000016C0000011241FBED6
:10009000CFEFD0E1DEBFCDBF11E0A0E0B1E0E0EAFC
:1000A000F3E000E00BBF02C007900D92A630B1074D
:1000B000D9F791D073C1A4CFEFE3FFE13197F1F706
:1000C00000C00000982F907F95BB95B39C7F95BB97
:1000D000F5E0FA95F1F70000AA9A25E02A95F1F7E4
:1000E0000000AA98E0E18E9FC001112485BB85B372
:1000F0008C7F85BBF5E0FA95F1F70000AA9A25E020
:100100002A95F1F70000AA980895E7E7FFE03197F4
:10011000F1F700C00000982F907F95BBA89AA9988E
:10012000F5E0FA95F1F70000AA9A25E02A95F1F793
:100130000000AA98E0E18E9FC001112485BBA89A17
:10014000A998F5E0FA95F1F70000AA9A25E02A951A
:10015000F1F70000AA9808952FEF86E791E021506B
:1001600080409040E1F700C0000088E2A5DF20ED6C
:100170002A95F1F78CE0A0DF80ED8A95F1F781E018
:100180009BDF87EE97E10197F1F700C0000086E062
:1001900093CF0895EF92FF920F931F93CF93DF9326
:1001A0008C017C01C0E0D0E005C0F70181917F01A6
:1001B000ACDF2196F80101900020E9F73197E01BB0
:1001C000F10BCE17DF0788F3DF91CF911F910F91CD
:1001D000FF90EF9008958FEF84BB11BA15BABCDF82
:1001E0000F2EFFE04F2EF7E25F2E612C712CF02DC9
:1001F000C12CD12C7601D0E00F2EFAE08F2E912C5D
:10020000A12CB12CF02DC1E000E082E055DF86E8A2
:1002100053DF80E091E0BEDF84EC4EDFC701B60122
:1002200020EA36E841E050E097D0CA01B901A501C3
:10023000940192D080E3860F68DFC701B60120E108
:1002400037E240E050E088D0CA01B901A50194012D
:1002500083D080E3860F59DF8AE357DFC701B601F9
:1002600028EE33E040E050E077D0CA01B901A501A3
:10027000940172D080E3860F48DFC701B60124E6FF
:1002800030E040E050E068D0CA01B901A501940116
:1002900063D080E3860F39DF8AE337DFC701B60119
:1002A000A501940159D0162FCA01B901A5019401E5
:1002B00053D080E3860F29DF80E3810F26DF8FEBA9
:1002C0009DE50197F1F700C00000D13029F492E0DC
:1002D000C90ED11CE11CF11C82E0480E511C611CAE
:1002E000711C90E4C91692E4D9069FE0E906F10476
:1002F00019F4C12CD12C760180B381708C1799F040
:100300008C2F95E6491651046104710408F4802F7E
:10031000882349F08C2FD111802FD82F80B3412C06
:10032000512C320172CF80B3869581708C1709F4FD
:100330006CCF8C2F93E3491651046104710408F4C7
:10034000802F882309F461CF412C512C3201C12C1C
:10035000D12C7601D02F59CFA1E21A2EAA1BBB1B9C
:10036000FD010DC0AA1FBB1FEE1FFF1FA217B30781
:10037000E407F50720F0A21BB30BE40BF50B661F97
:10038000771F881F991F1A9469F76095709580955B
:1003900090959B01AC01BD01CF010895F894FFCF6A
:0603A00054494D45000028
:00000001FF
